S00F000070617274325F632E737265636A
S11300000C9434000C943E000C943E000C943E007E
S11300100C943E000C943E000C943E000C943E0064
S11300200C943E000C943E000C943E000C943E0054
S11300300C943E000C943E000C943E000C943E0044
S11300400C943E000C943E000C943E000C943E0034
S11300500C943E000C943E000C943E000C943E0024
S11300600C943E000C943E0011241FBECFEFD8E048
S1130070DEBFCDBF0E9440000C9454000C940000DD
S1130080229A87B117B8429A86B1882359F02A9ADE
S11300902FE880ED93E0215080409040E1F700C0CC
S10F00A00000F2CF2A98F0CFF894FFCFB4
S9030000FC
