:100000000C9434000C9451000C9451000C94510049
:100010000C9451000C9451000C9451000C9451001C
:100020000C9451000C9451000C9451000C9451000C
:100030000C9451000C9451000C9451000C945100FC
:100040000C9451000C9451000C9451000C945100EC
:100050000C9451000C9470000C9451000C945100BD
:100060000C9451000C94510011241FBECFEFD8E026
:10007000DEBFCDBF11E0A0E0B1E0E0E5F3E002C0FB
:1000800005900D92AE3AB107D9F721E0AEEAB1E0A2
:1000900001C01D92A43BB207E1F70E9416010C9427
:1000A000A6010C94000080E680937C008FEE809384
:1000B0007A0008951092C50080E18093C400E0ECBE
:1000C000F0E0808182608083E1ECF0E080818860F4
:1000D0008083E2ECF0E080818660808378940895EC
:1000E0001F920F920FB60F9211242F933F934F93AD
:1000F0005F936F937F938F939F93AF93BF93EF9390
:10010000FF93CF93DF93CDB7DEB72797DEBFCDBF89
:100110001A82198280917900880F8093B3018091AF
:10012000B3014AE0BE016D5F7F4F90E00E94710114
:1001300089819A810597B8F4E981FA81A981BA8108
:1001400083E090E08C0F9D1FA80FB91F8C91E255A2
:10015000FE4F808389819A8101969A838983898160
:100160009A81059748F327960FB6F894DEBF0FBE25
:10017000CDBFDF91CF91FF91EF91BF91AF919F9153
:100180008F917F916F915F914F913F912F910F9040
:100190000FBE0F901F901895CF93DF9300D000D023
:1001A000CDB7DEB7AC011A8219821C821B821C8279
:1001B0001B82EB81FC81E80FF91F8081882369F0A5
:1001C0002B813C812F5F3F4F3C832B83EB81FC8154
:1001D000E40FF51F80818111F3CF29813A818B8152
:1001E0009C8128173907D8F4E0ECF0E066EC70E069
:1001F000908195FFFDCFA981BA81A40FB51F8C9185
:10020000DB018C9329813A812F5F3F4F3A83298309
:1002100029813A818B819C812817390748F30F90F7
:100220000F900F900F90DF91CF9108950E9453008F
:100230000E945A002FE38DE093E0215080409040CF
:10024000E1F700C000008FE991E00E94CC002FE3AD
:100250008DE093E0215080409040E1F700C0000025
:1002600085E791E00E94CC002FE78AE196E02150DB
:1002700080409040E1F700C0000087E691E00E94D6
:10028000CC002FE38DE093E0215080409040E1F7D7
:1002900000C000008EE391E00E94CC002FE38DE0CF
:1002A00093E0215080409040E1F700C000008EE2D2
:1002B00091E00E94CC002FE38DE093E0215080403C
:1002C0009040E1F700C0000085E091E00E94CC0082
:1002D0008EEA91E00E94CC0080E091E00E94CC0088
:1002E000D0CFBB274A3031F4992322F4BDE2909558
:1002F00081959F4F0C947D01BB27FB015527AA27B1
:10030000880F991FAA1FA41710F0A41B83955051A2
:10031000B9F7A05DAA3308F0A95DA193009779F71A
:10032000B111B1931192CB010C949601DC01FC0147
:10033000672F71917723E1F7329704C07C916D9319
:1003400070836291AE17BF07C8F30895F894FFCF8A
:100350000D0A0D0A00474554202F757064617465BD
:100360003F6B65793D3151305A38535645374131ED
:100370004F4E575331266669656C64313D004154D8
:100380002B43495053454E443D34350D0A004154EA
:100390002B43495053544152543D22544350222C34
:1003A000223138342E3130362E3135332E31343936
:1003B000222C38300D0A0041542B4349504D5558DA
:1003C0003D300D0A0041542B43574A41503D2267AE
:1003D000617264656E6869222C20224261736B65CC
:1003E0007462616C6C537461723233220D0A004185
:0E03F000542B43574D4F44453D330D0A00003A
:00000001FF
