S00D000070617274312E737265632F
S11300000C9434000C943E000C943E000C943E007E
S11300100C943E000C943E000C943E000C943E0064
S11300200C943E000C943E000C943E000C943E0054
S11300300C943E000C943E000C943E000C943E0044
S11300400C943E000C943E000C943E000C943E0034
S11300500C943E000C943E000C943E000C943E0024
S11300600C943E000C943E0011241FBECFEFD8E048
S1130070DEBFCDBF0E9440000C9450000C940000E1
S1130080229A14BC16BC85B5836085BD22E091E03C
S1130090A89BFECF85B1822785B916BC95BBF8CF46
S10700A0F894FFCFFE
S9030000FC
