S00C000032425F632E73726563E2
S11300000C9434000C944D000C943E000C943E006F
S11300100C943E000C943E000C943E000C943E0064
S11300200C943E000C943E000C943E000C943E0054
S11300300C943E000C943E000C943E000C943E0044
S11300400C943E000C943E000C943E000C943E0034
S11300500C943E000C943E000C943E000C943E0024
S11300600C943E000C943E0011241FBECFEFD8E048
S1130070DEBFCDBF0E9440000C946F000C940000C2
S1130080229A85B1847085B984E08BB982E080932B
S1130090690081E08DBB7894FFCF1F920F920FB659
S11300A00F9211242F933F938F939F9395B184E0E4
S11300B0982795B92FE734E89EE1215030409040CD
S11300C0E1F700C0000095B1892785B99F918F9110
S11300D03F912F910F900FBE0F901F901895F89499
S10500E0FFCF4C
S9030000FC
