S00E0000646134622D322E737265635C
S11300000C9434000C943E000C943E000C943E007E
S11300100C943E000C943E000C943E000C943E0064
S11300200C943E000C943E000C943E000C943E0054
S11300300C943E000C943E000C943E000C943E0044
S11300400C943E000C943E000C943E000C943E0034
S11300500C943E000C943E000C943E000C943E0024
S11300600C943E000C943E0011241FBECFEFD8E048
S1130070DEBFCDBF0E9440000C947A000C940000B7
S113008017B88FEF8AB984B9E0E8F0E08081826A1A
S11300908083E1E8F0E08081896180838FEF9FEFC6
S11300A09093870080938600E8E8F0E020E83EE340
S11300B080E49FE14FE75AE166E0415050406040E0
S11300C0E1F700C00000318320834FEF54E36CE07C
S11300D0415050406040E1F700C0000091838083AC
S11300E04FE75AE166E0415050406040E1F700C0FC
S10B00F00000E0CFF894FFCFFB
S9030000FC
