S01A000070726F6A65637432615F617373656D626C792E73726563C1
S11300000C9434000C943E000C943E000C943E007E
S11300100C943E000C943E000C943E000C943E0064
S11300200C943E000C943E000C943E000C943E0054
S11300300C943E000C943E000C943E000C943E0044
S11300400C943E000C943E000C943E000C943E0034
S11300500C943E000C943E000C943E000C943E0024
S11300600C943E000C943E0011241FBECFEFD8E048
S1130070DEBFCDBF0E9440000C9456000C940000DB
S1130080229A2A9A27ED83E591E0215080409040FE
S1130090E1F700C000002A982FE882EE90E021509A
S11300A080409040E1F700C00000EBCFF894FFCF10
S9030000FC
