:100000000C9434000C943E000C943E000C943E0082
:100010000C943E000C943E000C943E000C943E0068
:100020000C943E000C943E000C943E000C943E0058
:100030000C943E000C943E000C944B000C943E003B
:100040000C943E000C943E000C943E000C943E0038
:100050000C943E000C943E000C943E000C943E0028
:100060000C943E000C943E0011241FBECFEFD8E04C
:10007000DEBFCDBF0E9440000C945E000C940000D7
:10008000229A88E287BD85B5836085BD84B582608C
:1000900084BD7894FFCF1F920F920FB60F92112458
:1000A0008F939F9395B182E0892785B9A99A9F91F3
:1000B0008F910F900FBE0F901F901895F894FFCF5F
:00000001FF
