:100000000C9434000C9451000C9451000C94510049
:100010000C9451000C9451000C9451000C9451001C
:100020000C9451000C9451000C9451000C9451000C
:100030000C9451000C9451000C9451000C945100FC
:100040000C9451000C9451000C9451000C945100EC
:100050000C9451000C9451000C9451000C945100DC
:100060000C9451000C94510011241FBECFEFD8E026
:10007000DEBFCDBF11E0A0E0B1E0E8EAFBE002C0E6
:1000800005900D92AC3EB107D9F722E0ACEEB1E09D
:1000900001C01D92A730B207E1F70E9432020C9412
:1000A000D2050C94000088E48093B8000895ECEB2E
:1000B000F0E0108294EA908390819923ECF790917C
:1000C000B900987F9830A1F48093BB0084E88093B6
:1000D000BC00ECEBF0E080818823ECF79091B90054
:1000E000987F983139F081E0903429F480E00895C8
:1000F00081E0089580E008958093BB0084E88093B8
:10010000BC00ECEBF0E080818823ECF79091B90023
:10011000987F81E0983209F480E0089584EC809320
:10012000BC00ECEBF0E080818823ECF78091BB0011
:10013000089584E88093BC00ECEBF0E08081882394
:10014000ECF78091BB000895CF92DF92FF920F935E
:100150001F93CF93DF93C62F6A0189010E94570036
:10016000F82E811115C08C2F0E947C0001151105FD
:1001700059F0E6010C0D1D1D89910E947C00811132
:100180000AC0C017D107C1F784E98093BC0005C03D
:10019000FF24F39402C0FF24F3948F2DDF91CF91BD
:1001A0001F910F91FF90DF90CF900895AF92BF9273
:1001B000DF92EF92FF920F931F93CF93DF93182F4D
:1001C000062F5A01E9010E945700811122C0802F99
:1001D0000E947C00812F81600E945700D82E8111DF
:1001E0001BC08E010150110951F0E5017501E00EAF
:1001F000F11E0E948E008993EC16FD06D1F7E501F1
:10020000C00FD11F0E949900888384E98093BC00AD
:1002100005C0DD24D39402C0DD24D3948D2DDF915D
:10022000CF911F910F91FF90EF90DF90BF90AF9013
:100230000895E0ECF0E0908195FFFDCF8093C6003B
:1002400080E090E00895CF93DF9300D000D000D0FD
:10025000CDB7DEB721E030E0AE014F5F5F4F67E919
:1002600082E70E94D60021E030E0AE014E5F5F4F92
:1002700066E982E70E94D60021E030E0AE014D5FE2
:100280005F4F69E982E70E94D60021E030E0AE01CD
:100290004C5F5F4F68E982E70E94D60021E030E0C2
:1002A000AE014B5F5F4F6BE982E70E94D60021E011
:1002B00030E0AE014A5F5F4F6AE982E70E94D600F4
:1002C000498150E0542F44278A81482B5093F101F3
:1002D0004093F0012B8130E0322F22278C81282B94
:1002E0003093EF012093EE018D8190E0982F8827C5
:1002F0006E81862B9093ED018093EC014F3F510569
:1003000039F030F04FEF50E05093F1014093F0019D
:100310002F3F310539F030F02FEF30E03093EF010F
:100320002093EE018F3F910539F030F08FEF90E090
:100330009093ED018093EC0126960FB6F894DEBF02
:100340000FBECDBFDF91CF910895CF93DF931F9262
:10035000CDB7DEB721E030E0AE014F5F5F4F62E91D
:1003600082E70E94D60089818B3A09F0FFCF8BE1AA
:10037000898321E030E0AE014F5F5F4F60E882E7A4
:100380000E94A4008BED898321E030E0AE014F5F35
:100390005F4F61E882E70E94A40086EF898321E035
:1003A00030E0AE014F5F5F4F63E882E70E94A40038
:1003B00087E8898321E030E0AE014F5F5F4F6EE850
:1003C00082E70E94A400198221E030E0AE014F5F75
:1003D0005F4F6DE982E70E94A400198221E030E0BE
:1003E000AE014F5F5F4F6EE982E70E94A40080E696
:1003F000898321E030E0AE014F5F5F4F6DE882E717
:100400000E94A40081E1898321E030E0AE014F5FCA
:100410005F4F6CE882E70E94A40081E0898321E0BD
:1004200030E0AE014F5F5F4F60E982E70E94A400B9
:10043000198221E030E0AE014F5F5F4F6FE982E744
:100440000E94A4000F90DF91CF9108951092C500F3
:1004500087E68093C40088E18093C10086E08093A2
:10046000C20008950E9426020E94A5010E94530026
:1004700080E091E090930402809303021092F101D6
:100480001092F0011092EF011092EE011092ED0126
:100490001092EC012FE78AE196E0215080409040D5
:1004A000E1F700C000008EE091E00E94DA022FE345
:1004B00082E49FE0215080409040E1F700C00000BE
:1004C00082E191E00E94DA022FE382E49FE0215072
:1004D00080409040E1F700C000008FE191E00E9471
:1004E000DA02C6E8D1E02FE382E49FE021508040A9
:1004F0009040E1F700C000008EE391E00E94DA0234
:100500002FE382E49FE0215080409040E1F700C05B
:1005100000008BE491E00E94DA022FE382E49FE086
:10052000215080409040E1F700C000000E9423016C
:1005300086E791E00E94DA028091ED018F9380912D
:10054000EC018F938091EF018F938091EE018F9357
:100550008091F1018F938091F0018F93DF93CF937E
:100560000E94C4029FEB27E289E091502040804026
:10057000E1F700C000008DB79EB708960FB6F8945B
:100580009EBF0FBE8DBFAFCFA0E0B0E0EAECF2E0BF
:100590000C94AB05AE014B5F5F4FFA016191719115
:1005A000AF0180910302909104020E940A03E2E0ED
:1005B0000C94C7050F931F93CF93DF93E091030231
:1005C000F0910402238121FF1BC08C01D0E0C0E028
:1005D000F80181918F016091030270910402DB01A7
:1005E0001896ED91FC911997882331F00995892B84
:1005F00079F3DFEFCFEFECCF8AE00995892B19F083
:100600008FEF9FEF02C08D2F9C2FDF91CF911F9115
:100610000F910895ABE0B0E0E0E1F3E00C949B05AE
:100620006C017B018A01FC0117821682838181FFA4
:10063000CCC1CE0101963C01F6019381F70193FDF7
:10064000859193FF81917F01882309F4BAC1853296
:1006500039F493FD859193FF81917F01853229F4CF
:10066000B60190E00E940105E7CF912C212C312C9E
:10067000FFE1F315D8F08B3279F038F4803279F05D
:100680008332A1F4232D20611DC08D3261F08033AF
:1006900069F4232D216016C0832D8260382EE32D4E
:1006A000E4603E2E2AC0F32DF8601DC037FC2DC03B
:1006B00020ED280F2A3040F08E32B9F436FC81C18B
:1006C000232D2064322E19C036FE06C08AE0989E83
:1006D000200D1124922E11C0EAE02E9E200D11242F
:1006E000222EF32DF0623F2E08C08C3621F4832D8C
:1006F0008068382E02C0883641F4F70193FD859159
:1007000093FF81917F018111B3CF982F9F7D9554E5
:10071000933028F40C5F1F4F9FE399830DC08336FD
:1007200031F0833771F0833509F059C021C0F801E9
:10073000808189830E5F1F4F88248394912C5301FD
:1007400013C02801F2E04F0E511CF801A080B180C7
:1007500036FE03C0692D70E002C06FEF7FEFC50168
:100760000E94F6044C018201F32DFF773F2E16C044
:10077000280122E0420E511CF801A080B18036FE13
:1007800003C0692D70E002C06FEF7FEFC5010E94CA
:10079000EB044C01F32DF0683F2E820133FC1BC0AB
:1007A000822D90E088169906B0F4B60180E290E0C0
:1007B0000E9401052A94F4CFF50137FC859137FE9C
:1007C00081915F01B60190E00E94010521102A94F9
:1007D00021E0821A91088114910471F7E8C08436EF
:1007E00011F0893641F5F80137FE07C0608171814B
:1007F000828193810C5F1F4F08C060817181072E39
:10080000000C880B990B0E5F1F4FF32DFF763F2EC8
:1008100097FF09C090958095709561957F4F8F4F98
:100820009F4FF0683F2E2AE030E0A3010E943D0573
:10083000882E861845C0853731F4232D2F7EB22EA1
:100840002AE030E025C0932D997FB92E8F36C1F074
:1008500018F4883579F0B5C0803719F0883721F061
:10086000B0C0E92FE061BE2EB4FE0DC0FB2DF460D8
:10087000BF2E09C034FE0AC0292F2660B22E06C042
:1008800028E030E005C020E130E002C020E132E0A5
:10089000F801B7FE07C060817181828193810C5F8E
:1008A0001F4F06C06081718180E090E00E5F1F4F96
:1008B000A3010E943D05882E8618FB2DFF773F2E51
:1008C00036FE0DC0232D2E7FA22E891458F434FE3F
:1008D0000BC032FC09C0832D8E7EA82E05C0B82C1B
:1008E000A32C03C0B82C01C0B92CA4FE0FC0FE017C
:1008F000E80DF11D8081803321F49A2D997EA92E77
:1009000009C0A2FE06C0B394B39404C08A2D8678B1
:1009100009F0B394A3FC11C0A0FE06C0B21488F481
:10092000280C922C9B180EC0B21460F4B60180E221
:1009300090E00E940105B394F7CFB21418F42B187D
:1009400002C0982C212CA4FE10C0B60180E390E0D8
:100950000E940105A2FE17C0A1FC03C088E790E039
:1009600002C088E590E0B6010CC08A2D867859F067
:10097000A1FE02C08BE201C080E2A7FC8DE2B601BD
:1009800090E00E940105891438F4B60180E390E0FC
:100990000E9401059A94F7CF8A94F301E80DF11DA6
:1009A0008081B60190E00E9401058110F5CF2220E0
:1009B00009F442CEB60180E290E00E9401052A943B
:1009C000F6CFF6018681978102C08FEF9FEF2B96BD
:1009D000E2E10C94B705FC010590615070400110F4
:1009E000D8F7809590958E0F9F1F0895FC01615058
:1009F000704001900110D8F7809590958E0F9F1F41
:100A000008950F931F93CF93DF93FB01238121FD63
:100A100003C08FEF9FEF2CC022FF16C04681578185
:100A2000248135814217530744F4A081B1819D018F
:100A30002F5F3F4F318320838C93268137812F5F37
:100A40003F4F3783268314C08B01EC01FB010084E8
:100A5000F185E02D0995892BE1F6D80116968D9147
:100A60009C911797019617969C938E931697CE019B
:100A7000DF91CF911F910F910895FA01AA27283095
:100A800051F1203181F1E8946F936E7F6E5F7F4F5B
:100A90008F4F9F4FAF4FB1E03ED0B4E03CD0670FD7
:100AA000781F891F9A1FA11D680F791F8A1F911D2A
:100AB000A11D6A0F711D811D911DA11D20D009F47A
:100AC00068943F912AE0269F11243019305D3193BC
:100AD000DEF6CF010895462F4770405D4193B3E0A5
:100AE0000FD0C9F7F6CF462F4F70405D4A3318F04C
:100AF000495D31FD4052419302D0A9F7EACFB4E0FD
:100B0000A6959795879577956795BA95C9F70097B4
:100B10006105710508959B01AC010A2E0694579555
:100B2000479537952795BA95C9F7620F731F841FAC
:100B3000951FA01D08952F923F924F925F926F9242
:100B40007F928F929F92AF92BF92CF92DF92EF925D
:100B5000FF920F931F93CF93DF93CDB7DEB7CA1BDE
:100B6000DB0B0FB6F894DEBF0FBECDBF09942A8809
:100B7000398848885F846E847D848C849B84AA84B1
:100B8000B984C884DF80EE80FD800C811B81AA813E
:100B9000B981CE0FD11D0FB6F894DEBF0FBECDBF09
:080BA000ED010895F894FFCF68
:100BA800000000020000000019010000000041548C
:100BB8000D0041542B43574D4F44453D330D0041E3
:100BC800542B43574A41503D224275636B65796502
:100BD800222C224465626172723538220D0041541C
:100BE8002B4349504D55583D300D0041542B434936
:100BF8005053544152543D22544350222C22617088
:100C0800692E7468696E67737065616B2E636F6DAA
:100C1800222C38300D0041542B43495053454E4443
:100C28003D3130340D004745542068747470733A70
:100C38002F2F6170692E7468696E67737065616BB8
:100C48002E636F6D2F7570646174653F6170695FA5
:100C58006B65793D52495A524F33433134463459C2
:100C68004D5A4B59266669656C64313D30253035DF
:100C780075266669656C64323D253035752666696A
:0C0C8800656C64333D253035750D0A00A5
:00000001FF
