:100000000C9434000C943E000C943E000C943E0082
:100010000C943E000C943E000C943E000C943E0068
:100020000C943E000C943E000C943E000C943E0058
:100030000C943E000C943E000C943E000C943E0048
:100040000C944D000C943E000C943E000C943E0029
:100050000C943E000C943E000C943E000C943E0028
:100060000C943E000C943E0011241FBECFEFD8E04C
:10007000DEBFCDBF0E9440000C9461000C940000D4
:10008000229AEEE6F0E080818160808388E386BD7D
:10009000789485B5836085BDFFCF1F920F920FB610
:1000A0000F9211248F939F9388E386BD95B182E0D0
:1000B000892785B99F918F910F900FBE0F901F9048
:0600C0001895F894FFCF33
:00000001FF
