S00A000031632E7372656386
S11300000C9434000C943E000C943E000C943E007E
S11300100C943E000C943E000C943E000C943E0064
S11300200C943E000C943E000C943E000C943E0054
S11300300C943E000C943E000C943E000C943E0044
S11300400C943E000C943E000C943E000C943E0034
S11300500C943E000C943E000C943E000C943E0024
S11300600C943E000C943E0011241FBECFEFD8E048
S1130070DEBFCDBF0E9440000C9475000C940000BC
S1130080419A84B1876084B95E9829982A98569ACF
S113009082E387BD83E884BD82E085BD92E35E9AF6
S11300A0319B09C0EFE3FCE93197F1F700C0000090
S11300B0299A2A9808C0EFE3FCE93197F1F700C0C8
S11300C0000029982A98FFEF29E638E1F1502040F2
S11300D03040E1F700C0000087B58B3F10F097BDBA
S11100E0DECF87B5875E87BDDACFF894FFCFF9
S9030000FC
